{
  "contractName": "SimpleContract",
  "abi": [
    {
      "constant": true,
      "inputs": [],
      "name": "myNumber",
      "outputs": [
        {
          "name": "",
          "type": "uint256"
        }
      ],
      "payable": false,
      "stateMutability": "view",
      "type": "function"
    },
    {
      "inputs": [],
      "payable": false,
      "stateMutability": "nonpayable",
      "type": "constructor"
    },
    {
      "constant": false,
      "inputs": [
        {
          "name": "newValue",
          "type": "uint256"
        }
      ],
      "name": "setNumber",
      "outputs": [],
      "payable": false,
      "stateMutability": "nonpayable",
      "type": "function"
    }
  ],
  "bytecode": "0x608060405234801561001057600080fd5b50602a60008190555060e3806100276000396000f3fe6080604052600436106043576000357c01000000000000000000000000000000000000000000000000000000009004806323fd0e401460485780633fb5c1cb146070575b600080fd5b348015605357600080fd5b50605a60a7565b6040518082815260200191505060405180910390f35b348015607b57600080fd5b5060a560048036036020811015609057600080fd5b810190808035906020019092919050505060ad565b005b60005481565b806000819055505056fea165627a7a72305820ec0bd7d2bb1456c0a6146e148efca97b02a5b4138b46076a33a37a5068887c920029",
  "source": "// SPDX-License-Identifier: MIT\r\npragma solidity >=0.4.22 <0.9.0;\r\n\r\ncontract SimpleContract {\r\n    uint public myNumber;\r\n\r\n    constructor() public {\r\n        myNumber = 42;\r\n    }\r\n\r\n    function setNumber(uint newValue) public {\r\n        myNumber = newValue;\r\n    }\r\n}\r\n",
  "sourcePath": "C:\\Users\\ADMIN\\OneDrive\\Desktop\\SolidityTest\\contracts\\SimpleContract.sol",
  "compiler": {
    "name": "solc",
    "version": "0.5.1+commit.c8a2cb62.Emscripten.clang"
  },
  "schemaVersion": "3.4.14",
  "updatedAt": "2023-07-16T13:00:37.063Z",
  "devdoc": {
    "methods": {}
  },
  "userdoc": {
    "methods": {}
  }
}